{
  "_format": "hh-sol-artifact-1",
  "contractName": "PrimitiveManager",
  "sourceName": "contracts/PrimitiveManager.sol",
  "abi": [
    {
      "inputs": [
        {
          "internalType": "address",
          "name": "factory_",
          "type": "address"
        },
        {
          "internalType": "address",
          "name": "WETH9_",
          "type": "address"
        },
        {
          "internalType": "address",
          "name": "positionDescriptor_",
          "type": "address"
        }
      ],
      "stateMutability": "nonpayable",
      "type": "constructor"
    },
    {
      "inputs": [
        {
          "internalType": "uint256",
          "name": "balance",
          "type": "uint256"
        },
        {
          "internalType": "uint256",
          "name": "requiredAmount",
          "type": "uint256"
        }
      ],
      "name": "BalanceTooLowError",
      "type": "error"
    },
    {
      "inputs": [],
      "name": "DeadlineReachedError",
      "type": "error"
    },
    {
      "inputs": [],
      "name": "EngineNotDeployedError",
      "type": "error"
    },
    {
      "inputs": [],
      "name": "InvalidSigError",
      "type": "error"
    },
    {
      "inputs": [],
      "name": "LockedError",
      "type": "error"
    },
    {
      "inputs": [],
      "name": "MinLiquidityOutError",
      "type": "error"
    },
    {
      "inputs": [],
      "name": "MinRemoveOutError",
      "type": "error"
    },
    {
      "inputs": [],
      "name": "NotEngineError",
      "type": "error"
    },
    {
      "inputs": [],
      "name": "OnlyWETHError",
      "type": "error"
    },
    {
      "inputs": [],
      "name": "SigExpiredError",
      "type": "error"
    },
    {
      "inputs": [],
      "name": "TransferError",
      "type": "error"
    },
    {
      "inputs": [],
      "name": "WrongConstructorParametersError",
      "type": "error"
    },
    {
      "inputs": [],
      "name": "ZeroDelError",
      "type": "error"
    },
    {
      "inputs": [],
      "name": "ZeroLiquidityError",
      "type": "error"
    },
    {
      "anonymous": false,
      "inputs": [
        {
          "indexed": false,
          "internalType": "address",
          "name": "payer",
          "type": "address"
        },
        {
          "indexed": true,
          "internalType": "address",
          "name": "recipient",
          "type": "address"
        },
        {
          "indexed": true,
          "internalType": "address",
          "name": "engine",
          "type": "address"
        },
        {
          "indexed": true,
          "internalType": "bytes32",
          "name": "poolId",
          "type": "bytes32"
        },
        {
          "indexed": false,
          "internalType": "uint256",
          "name": "delLiquidity",
          "type": "uint256"
        },
        {
          "indexed": false,
          "internalType": "uint256",
          "name": "delRisky",
          "type": "uint256"
        },
        {
          "indexed": false,
          "internalType": "uint256",
          "name": "delStable",
          "type": "uint256"
        },
        {
          "indexed": false,
          "internalType": "bool",
          "name": "fromMargin",
          "type": "bool"
        }
      ],
      "name": "Allocate",
      "type": "event"
    },
    {
      "anonymous": false,
      "inputs": [
        {
          "indexed": true,
          "internalType": "address",
          "name": "account",
          "type": "address"
        },
        {
          "indexed": true,
          "internalType": "address",
          "name": "operator",
          "type": "address"
        },
        {
          "indexed": false,
          "internalType": "bool",
          "name": "approved",
          "type": "bool"
        }
      ],
      "name": "ApprovalForAll",
      "type": "event"
    },
    {
      "anonymous": false,
      "inputs": [
        {
          "indexed": true,
          "internalType": "address",
          "name": "payer",
          "type": "address"
        },
        {
          "indexed": true,
          "internalType": "address",
          "name": "engine",
          "type": "address"
        },
        {
          "indexed": true,
          "internalType": "bytes32",
          "name": "poolId",
          "type": "bytes32"
        },
        {
          "indexed": false,
          "internalType": "uint128",
          "name": "strike",
          "type": "uint128"
        },
        {
          "indexed": false,
          "internalType": "uint32",
          "name": "sigma",
          "type": "uint32"
        },
        {
          "indexed": false,
          "internalType": "uint32",
          "name": "maturity",
          "type": "uint32"
        },
        {
          "indexed": false,
          "internalType": "uint32",
          "name": "gamma",
          "type": "uint32"
        },
        {
          "indexed": false,
          "internalType": "uint256",
          "name": "delLiquidity",
          "type": "uint256"
        }
      ],
      "name": "Create",
      "type": "event"
    },
    {
      "anonymous": false,
      "inputs": [
        {
          "indexed": true,
          "internalType": "address",
          "name": "payer",
          "type": "address"
        },
        {
          "indexed": true,
          "internalType": "address",
          "name": "recipient",
          "type": "address"
        },
        {
          "indexed": true,
          "internalType": "address",
          "name": "engine",
          "type": "address"
        },
        {
          "indexed": false,
          "internalType": "address",
          "name": "risky",
          "type": "address"
        },
        {
          "indexed": false,
          "internalType": "address",
          "name": "stable",
          "type": "address"
        },
        {
          "indexed": false,
          "internalType": "uint256",
          "name": "delRisky",
          "type": "uint256"
        },
        {
          "indexed": false,
          "internalType": "uint256",
          "name": "delStable",
          "type": "uint256"
        }
      ],
      "name": "Deposit",
      "type": "event"
    },
    {
      "anonymous": false,
      "inputs": [
        {
          "indexed": true,
          "internalType": "address",
          "name": "payer",
          "type": "address"
        },
        {
          "indexed": true,
          "internalType": "address",
          "name": "engine",
          "type": "address"
        },
        {
          "indexed": true,
          "internalType": "bytes32",
          "name": "poolId",
          "type": "bytes32"
        },
        {
          "indexed": false,
          "internalType": "uint256",
          "name": "delLiquidity",
          "type": "uint256"
        },
        {
          "indexed": false,
          "internalType": "uint256",
          "name": "delRisky",
          "type": "uint256"
        },
        {
          "indexed": false,
          "internalType": "uint256",
          "name": "delStable",
          "type": "uint256"
        }
      ],
      "name": "Remove",
      "type": "event"
    },
    {
      "anonymous": false,
      "inputs": [
        {
          "indexed": true,
          "internalType": "address",
          "name": "payer",
          "type": "address"
        },
        {
          "indexed": false,
          "internalType": "address",
          "name": "recipient",
          "type": "address"
        },
        {
          "indexed": true,
          "internalType": "address",
          "name": "engine",
          "type": "address"
        },
        {
          "indexed": true,
          "internalType": "bytes32",
          "name": "poolId",
          "type": "bytes32"
        },
        {
          "indexed": false,
          "internalType": "bool",
          "name": "riskyForStable",
          "type": "bool"
        },
        {
          "indexed": false,
          "internalType": "uint256",
          "name": "deltaIn",
          "type": "uint256"
        },
        {
          "indexed": false,
          "internalType": "uint256",
          "name": "deltaOut",
          "type": "uint256"
        },
        {
          "indexed": false,
          "internalType": "bool",
          "name": "fromMargin",
          "type": "bool"
        },
        {
          "indexed": false,
          "internalType": "bool",
          "name": "toMargin",
          "type": "bool"
        }
      ],
      "name": "Swap",
      "type": "event"
    },
    {
      "anonymous": false,
      "inputs": [
        {
          "indexed": true,
          "internalType": "address",
          "name": "operator",
          "type": "address"
        },
        {
          "indexed": true,
          "internalType": "address",
          "name": "from",
          "type": "address"
        },
        {
          "indexed": true,
          "internalType": "address",
          "name": "to",
          "type": "address"
        },
        {
          "indexed": false,
          "internalType": "uint256[]",
          "name": "ids",
          "type": "uint256[]"
        },
        {
          "indexed": false,
          "internalType": "uint256[]",
          "name": "values",
          "type": "uint256[]"
        }
      ],
      "name": "TransferBatch",
      "type": "event"
    },
    {
      "anonymous": false,
      "inputs": [
        {
          "indexed": true,
          "internalType": "address",
          "name": "operator",
          "type": "address"
        },
        {
          "indexed": true,
          "internalType": "address",
          "name": "from",
          "type": "address"
        },
        {
          "indexed": true,
          "internalType": "address",
          "name": "to",
          "type": "address"
        },
        {
          "indexed": false,
          "internalType": "uint256",
          "name": "id",
          "type": "uint256"
        },
        {
          "indexed": false,
          "internalType": "uint256",
          "name": "value",
          "type": "uint256"
        }
      ],
      "name": "TransferSingle",
      "type": "event"
    },
    {
      "anonymous": false,
      "inputs": [
        {
          "indexed": false,
          "internalType": "string",
          "name": "value",
          "type": "string"
        },
        {
          "indexed": true,
          "internalType": "uint256",
          "name": "id",
          "type": "uint256"
        }
      ],
      "name": "URI",
      "type": "event"
    },
    {
      "anonymous": false,
      "inputs": [
        {
          "indexed": true,
          "internalType": "address",
          "name": "payer",
          "type": "address"
        },
        {
          "indexed": true,
          "internalType": "address",
          "name": "recipient",
          "type": "address"
        },
        {
          "indexed": true,
          "internalType": "address",
          "name": "engine",
          "type": "address"
        },
        {
          "indexed": false,
          "internalType": "address",
          "name": "risky",
          "type": "address"
        },
        {
          "indexed": false,
          "internalType": "address",
          "name": "stable",
          "type": "address"
        },
        {
          "indexed": false,
          "internalType": "uint256",
          "name": "delRisky",
          "type": "uint256"
        },
        {
          "indexed": false,
          "internalType": "uint256",
          "name": "delStable",
          "type": "uint256"
        }
      ],
      "name": "Withdraw",
      "type": "event"
    },
    {
      "inputs": [],
      "name": "DOMAIN_SEPARATOR",
      "outputs": [
        {
          "internalType": "bytes32",
          "name": "",
          "type": "bytes32"
        }
      ],
      "stateMutability": "view",
      "type": "function"
    },
    {
      "inputs": [],
      "name": "WETH9",
      "outputs": [
        {
          "internalType": "address",
          "name": "",
          "type": "address"
        }
      ],
      "stateMutability": "view",
      "type": "function"
    },
    {
      "inputs": [
        {
          "internalType": "address",
          "name": "recipient",
          "type": "address"
        },
        {
          "internalType": "bytes32",
          "name": "poolId",
          "type": "bytes32"
        },
        {
          "internalType": "address",
          "name": "risky",
          "type": "address"
        },
        {
          "internalType": "address",
          "name": "stable",
          "type": "address"
        },
        {
          "internalType": "uint256",
          "name": "delRisky",
          "type": "uint256"
        },
        {
          "internalType": "uint256",
          "name": "delStable",
          "type": "uint256"
        },
        {
          "internalType": "bool",
          "name": "fromMargin",
          "type": "bool"
        },
        {
          "internalType": "uint256",
          "name": "minLiquidityOut",
          "type": "uint256"
        }
      ],
      "name": "allocate",
      "outputs": [
        {
          "internalType": "uint256",
          "name": "delLiquidity",
          "type": "uint256"
        }
      ],
      "stateMutability": "payable",
      "type": "function"
    },
    {
      "inputs": [
        {
          "internalType": "uint256",
          "name": "delRisky",
          "type": "uint256"
        },
        {
          "internalType": "uint256",
          "name": "delStable",
          "type": "uint256"
        },
        {
          "internalType": "bytes",
          "name": "data",
          "type": "bytes"
        }
      ],
      "name": "allocateCallback",
      "outputs": [],
      "stateMutability": "nonpayable",
      "type": "function"
    },
    {
      "inputs": [
        {
          "internalType": "address",
          "name": "account",
          "type": "address"
        },
        {
          "internalType": "uint256",
          "name": "id",
          "type": "uint256"
        }
      ],
      "name": "balanceOf",
      "outputs": [
        {
          "internalType": "uint256",
          "name": "",
          "type": "uint256"
        }
      ],
      "stateMutability": "view",
      "type": "function"
    },
    {
      "inputs": [
        {
          "internalType": "address[]",
          "name": "accounts",
          "type": "address[]"
        },
        {
          "internalType": "uint256[]",
          "name": "ids",
          "type": "uint256[]"
        }
      ],
      "name": "balanceOfBatch",
      "outputs": [
        {
          "internalType": "uint256[]",
          "name": "",
          "type": "uint256[]"
        }
      ],
      "stateMutability": "view",
      "type": "function"
    },
    {
      "inputs": [
        {
          "internalType": "address",
          "name": "risky",
          "type": "address"
        },
        {
          "internalType": "address",
          "name": "stable",
          "type": "address"
        },
        {
          "internalType": "uint128",
          "name": "strike",
          "type": "uint128"
        },
        {
          "internalType": "uint32",
          "name": "sigma",
          "type": "uint32"
        },
        {
          "internalType": "uint32",
          "name": "maturity",
          "type": "uint32"
        },
        {
          "internalType": "uint32",
          "name": "gamma",
          "type": "uint32"
        },
        {
          "internalType": "uint256",
          "name": "riskyPerLp",
          "type": "uint256"
        },
        {
          "internalType": "uint256",
          "name": "delLiquidity",
          "type": "uint256"
        }
      ],
      "name": "create",
      "outputs": [
        {
          "internalType": "bytes32",
          "name": "poolId",
          "type": "bytes32"
        },
        {
          "internalType": "uint256",
          "name": "delRisky",
          "type": "uint256"
        },
        {
          "internalType": "uint256",
          "name": "delStable",
          "type": "uint256"
        }
      ],
      "stateMutability": "payable",
      "type": "function"
    },
    {
      "inputs": [
        {
          "internalType": "uint256",
          "name": "delRisky",
          "type": "uint256"
        },
        {
          "internalType": "uint256",
          "name": "delStable",
          "type": "uint256"
        },
        {
          "internalType": "bytes",
          "name": "data",
          "type": "bytes"
        }
      ],
      "name": "createCallback",
      "outputs": [],
      "stateMutability": "nonpayable",
      "type": "function"
    },
    {
      "inputs": [
        {
          "internalType": "address",
          "name": "recipient",
          "type": "address"
        },
        {
          "internalType": "address",
          "name": "risky",
          "type": "address"
        },
        {
          "internalType": "address",
          "name": "stable",
          "type": "address"
        },
        {
          "internalType": "uint256",
          "name": "delRisky",
          "type": "uint256"
        },
        {
          "internalType": "uint256",
          "name": "delStable",
          "type": "uint256"
        }
      ],
      "name": "deposit",
      "outputs": [],
      "stateMutability": "payable",
      "type": "function"
    },
    {
      "inputs": [
        {
          "internalType": "uint256",
          "name": "delRisky",
          "type": "uint256"
        },
        {
          "internalType": "uint256",
          "name": "delStable",
          "type": "uint256"
        },
        {
          "internalType": "bytes",
          "name": "data",
          "type": "bytes"
        }
      ],
      "name": "depositCallback",
      "outputs": [],
      "stateMutability": "nonpayable",
      "type": "function"
    },
    {
      "inputs": [],
      "name": "factory",
      "outputs": [
        {
          "internalType": "address",
          "name": "",
          "type": "address"
        }
      ],
      "stateMutability": "view",
      "type": "function"
    },
    {
      "inputs": [
        {
          "internalType": "address",
          "name": "account",
          "type": "address"
        },
        {
          "internalType": "address",
          "name": "operator",
          "type": "address"
        }
      ],
      "name": "isApprovedForAll",
      "outputs": [
        {
          "internalType": "bool",
          "name": "",
          "type": "bool"
        }
      ],
      "stateMutability": "view",
      "type": "function"
    },
    {
      "inputs": [
        {
          "internalType": "address",
          "name": "",
          "type": "address"
        },
        {
          "internalType": "address",
          "name": "",
          "type": "address"
        }
      ],
      "name": "margins",
      "outputs": [
        {
          "internalType": "uint128",
          "name": "balanceRisky",
          "type": "uint128"
        },
        {
          "internalType": "uint128",
          "name": "balanceStable",
          "type": "uint128"
        }
      ],
      "stateMutability": "view",
      "type": "function"
    },
    {
      "inputs": [
        {
          "internalType": "bytes[]",
          "name": "data",
          "type": "bytes[]"
        }
      ],
      "name": "multicall",
      "outputs": [
        {
          "internalType": "bytes[]",
          "name": "results",
          "type": "bytes[]"
        }
      ],
      "stateMutability": "payable",
      "type": "function"
    },
    {
      "inputs": [
        {
          "internalType": "address",
          "name": "",
          "type": "address"
        }
      ],
      "name": "nonces",
      "outputs": [
        {
          "internalType": "uint256",
          "name": "",
          "type": "uint256"
        }
      ],
      "stateMutability": "view",
      "type": "function"
    },
    {
      "inputs": [
        {
          "internalType": "address",
          "name": "owner",
          "type": "address"
        },
        {
          "internalType": "address",
          "name": "operator",
          "type": "address"
        },
        {
          "internalType": "bool",
          "name": "approved",
          "type": "bool"
        },
        {
          "internalType": "uint256",
          "name": "deadline",
          "type": "uint256"
        },
        {
          "internalType": "uint8",
          "name": "v",
          "type": "uint8"
        },
        {
          "internalType": "bytes32",
          "name": "r",
          "type": "bytes32"
        },
        {
          "internalType": "bytes32",
          "name": "s",
          "type": "bytes32"
        }
      ],
      "name": "permit",
      "outputs": [],
      "stateMutability": "nonpayable",
      "type": "function"
    },
    {
      "inputs": [],
      "name": "positionDescriptor",
      "outputs": [
        {
          "internalType": "address",
          "name": "",
          "type": "address"
        }
      ],
      "stateMutability": "view",
      "type": "function"
    },
    {
      "inputs": [],
      "name": "refundETH",
      "outputs": [],
      "stateMutability": "payable",
      "type": "function"
    },
    {
      "inputs": [
        {
          "internalType": "address",
          "name": "engine",
          "type": "address"
        },
        {
          "internalType": "bytes32",
          "name": "poolId",
          "type": "bytes32"
        },
        {
          "internalType": "uint256",
          "name": "delLiquidity",
          "type": "uint256"
        },
        {
          "internalType": "uint256",
          "name": "minRiskyOut",
          "type": "uint256"
        },
        {
          "internalType": "uint256",
          "name": "minStableOut",
          "type": "uint256"
        }
      ],
      "name": "remove",
      "outputs": [
        {
          "internalType": "uint256",
          "name": "delRisky",
          "type": "uint256"
        },
        {
          "internalType": "uint256",
          "name": "delStable",
          "type": "uint256"
        }
      ],
      "stateMutability": "nonpayable",
      "type": "function"
    },
    {
      "inputs": [
        {
          "internalType": "address",
          "name": "from",
          "type": "address"
        },
        {
          "internalType": "address",
          "name": "to",
          "type": "address"
        },
        {
          "internalType": "uint256[]",
          "name": "ids",
          "type": "uint256[]"
        },
        {
          "internalType": "uint256[]",
          "name": "amounts",
          "type": "uint256[]"
        },
        {
          "internalType": "bytes",
          "name": "data",
          "type": "bytes"
        }
      ],
      "name": "safeBatchTransferFrom",
      "outputs": [],
      "stateMutability": "nonpayable",
      "type": "function"
    },
    {
      "inputs": [
        {
          "internalType": "address",
          "name": "from",
          "type": "address"
        },
        {
          "internalType": "address",
          "name": "to",
          "type": "address"
        },
        {
          "internalType": "uint256",
          "name": "id",
          "type": "uint256"
        },
        {
          "internalType": "uint256",
          "name": "amount",
          "type": "uint256"
        },
        {
          "internalType": "bytes",
          "name": "data",
          "type": "bytes"
        }
      ],
      "name": "safeTransferFrom",
      "outputs": [],
      "stateMutability": "nonpayable",
      "type": "function"
    },
    {
      "inputs": [
        {
          "internalType": "address",
          "name": "token",
          "type": "address"
        },
        {
          "internalType": "uint256",
          "name": "value",
          "type": "uint256"
        },
        {
          "internalType": "uint256",
          "name": "deadline",
          "type": "uint256"
        },
        {
          "internalType": "uint8",
          "name": "v",
          "type": "uint8"
        },
        {
          "internalType": "bytes32",
          "name": "r",
          "type": "bytes32"
        },
        {
          "internalType": "bytes32",
          "name": "s",
          "type": "bytes32"
        }
      ],
      "name": "selfPermit",
      "outputs": [],
      "stateMutability": "payable",
      "type": "function"
    },
    {
      "inputs": [
        {
          "internalType": "address",
          "name": "token",
          "type": "address"
        },
        {
          "internalType": "uint256",
          "name": "nonce",
          "type": "uint256"
        },
        {
          "internalType": "uint256",
          "name": "expiry",
          "type": "uint256"
        },
        {
          "internalType": "uint8",
          "name": "v",
          "type": "uint8"
        },
        {
          "internalType": "bytes32",
          "name": "r",
          "type": "bytes32"
        },
        {
          "internalType": "bytes32",
          "name": "s",
          "type": "bytes32"
        }
      ],
      "name": "selfPermitAllowed",
      "outputs": [],
      "stateMutability": "payable",
      "type": "function"
    },
    {
      "inputs": [
        {
          "internalType": "address",
          "name": "token",
          "type": "address"
        },
        {
          "internalType": "uint256",
          "name": "nonce",
          "type": "uint256"
        },
        {
          "internalType": "uint256",
          "name": "expiry",
          "type": "uint256"
        },
        {
          "internalType": "uint8",
          "name": "v",
          "type": "uint8"
        },
        {
          "internalType": "bytes32",
          "name": "r",
          "type": "bytes32"
        },
        {
          "internalType": "bytes32",
          "name": "s",
          "type": "bytes32"
        }
      ],
      "name": "selfPermitAllowedIfNecessary",
      "outputs": [],
      "stateMutability": "payable",
      "type": "function"
    },
    {
      "inputs": [
        {
          "internalType": "address",
          "name": "token",
          "type": "address"
        },
        {
          "internalType": "uint256",
          "name": "value",
          "type": "uint256"
        },
        {
          "internalType": "uint256",
          "name": "deadline",
          "type": "uint256"
        },
        {
          "internalType": "uint8",
          "name": "v",
          "type": "uint8"
        },
        {
          "internalType": "bytes32",
          "name": "r",
          "type": "bytes32"
        },
        {
          "internalType": "bytes32",
          "name": "s",
          "type": "bytes32"
        }
      ],
      "name": "selfPermitIfNecessary",
      "outputs": [],
      "stateMutability": "payable",
      "type": "function"
    },
    {
      "inputs": [
        {
          "internalType": "address",
          "name": "operator",
          "type": "address"
        },
        {
          "internalType": "bool",
          "name": "approved",
          "type": "bool"
        }
      ],
      "name": "setApprovalForAll",
      "outputs": [],
      "stateMutability": "nonpayable",
      "type": "function"
    },
    {
      "inputs": [
        {
          "internalType": "bytes4",
          "name": "interfaceId",
          "type": "bytes4"
        }
      ],
      "name": "supportsInterface",
      "outputs": [
        {
          "internalType": "bool",
          "name": "",
          "type": "bool"
        }
      ],
      "stateMutability": "view",
      "type": "function"
    },
    {
      "inputs": [
        {
          "components": [
            {
              "internalType": "address",
              "name": "recipient",
              "type": "address"
            },
            {
              "internalType": "address",
              "name": "risky",
              "type": "address"
            },
            {
              "internalType": "address",
              "name": "stable",
              "type": "address"
            },
            {
              "internalType": "bytes32",
              "name": "poolId",
              "type": "bytes32"
            },
            {
              "internalType": "bool",
              "name": "riskyForStable",
              "type": "bool"
            },
            {
              "internalType": "uint256",
              "name": "deltaIn",
              "type": "uint256"
            },
            {
              "internalType": "uint256",
              "name": "deltaOut",
              "type": "uint256"
            },
            {
              "internalType": "bool",
              "name": "fromMargin",
              "type": "bool"
            },
            {
              "internalType": "bool",
              "name": "toMargin",
              "type": "bool"
            },
            {
              "internalType": "uint256",
              "name": "deadline",
              "type": "uint256"
            }
          ],
          "internalType": "struct ISwapManager.SwapParams",
          "name": "params",
          "type": "tuple"
        }
      ],
      "name": "swap",
      "outputs": [],
      "stateMutability": "payable",
      "type": "function"
    },
    {
      "inputs": [
        {
          "internalType": "uint256",
          "name": "delRisky",
          "type": "uint256"
        },
        {
          "internalType": "uint256",
          "name": "delStable",
          "type": "uint256"
        },
        {
          "internalType": "bytes",
          "name": "data",
          "type": "bytes"
        }
      ],
      "name": "swapCallback",
      "outputs": [],
      "stateMutability": "nonpayable",
      "type": "function"
    },
    {
      "inputs": [
        {
          "internalType": "address",
          "name": "token",
          "type": "address"
        },
        {
          "internalType": "uint256",
          "name": "amountMin",
          "type": "uint256"
        },
        {
          "internalType": "address",
          "name": "recipient",
          "type": "address"
        }
      ],
      "name": "sweepToken",
      "outputs": [],
      "stateMutability": "payable",
      "type": "function"
    },
    {
      "inputs": [
        {
          "internalType": "uint256",
          "name": "amountMin",
          "type": "uint256"
        },
        {
          "internalType": "address",
          "name": "recipient",
          "type": "address"
        }
      ],
      "name": "unwrap",
      "outputs": [],
      "stateMutability": "payable",
      "type": "function"
    },
    {
      "inputs": [
        {
          "internalType": "uint256",
          "name": "tokenId",
          "type": "uint256"
        }
      ],
      "name": "uri",
      "outputs": [
        {
          "internalType": "string",
          "name": "",
          "type": "string"
        }
      ],
      "stateMutability": "view",
      "type": "function"
    },
    {
      "inputs": [
        {
          "internalType": "address",
          "name": "recipient",
          "type": "address"
        },
        {
          "internalType": "address",
          "name": "engine",
          "type": "address"
        },
        {
          "internalType": "uint256",
          "name": "delRisky",
          "type": "uint256"
        },
        {
          "internalType": "uint256",
          "name": "delStable",
          "type": "uint256"
        }
      ],
      "name": "withdraw",
      "outputs": [],
      "stateMutability": "nonpayable",
      "type": "function"
    },
    {
      "inputs": [
        {
          "internalType": "uint256",
          "name": "value",
          "type": "uint256"
        }
      ],
      "name": "wrap",
      "outputs": [],
      "stateMutability": "payable",
      "type": "function"
    },
    {
      "stateMutability": "payable",
      "type": "receive"
    }
  ],
  "bytecode": "0x6101c060405260016000557f7bf72c3e57bc00556754c7454ead7d72d1c0e263909e7c643fbc0d1e0f3c3e746101a0523480156200003c57600080fd5b5060405162004d5f38038062004d5f8339810160408190526200005f91620002cd565b6040518060400160405280601081526020016f283934b6b4ba34bb32a6b0b730b3b2b960811b815250604051806040016040528060018152602001603160f81b8152506040518060200160405280600081525085858560006001600160a01b0316836001600160a01b03161480620000de57506001600160a01b038216155b80620000f157506001600160a01b038116155b156200011057604051639940007160e01b815260040160405180910390fd5b6001600160601b0319606093841b811660805291831b821660a05290911b1660c0526200013d81620001f1565b50815160208084019190912082519183019190912061014082905261016081905246610100527f8b73c3c69bb8fe3d512ecc4cf759cc79239f7b179b0ffacaa9a75d522b39400f620001d48184846040805160208101859052908101839052606081018290524660808201523060a082015260009060c0016040516020818303038152906040528051906020012090509392505050565b60e0523060601b6101205261018052506200035495505050505050565b8051620002069060039060208401906200020a565b5050565b828054620002189062000317565b90600052602060002090601f0160209004810192826200023c576000855562000287565b82601f106200025757805160ff191683800117855562000287565b8280016001018555821562000287579182015b82811115620002875782518255916020019190600101906200026a565b506200029592915062000299565b5090565b5b808211156200029557600081556001016200029a565b80516001600160a01b0381168114620002c857600080fd5b919050565b600080600060608486031215620002e357600080fd5b620002ee84620002b0565b9250620002fe60208501620002b0565b91506200030e60408501620002b0565b90509250925092565b600181811c908216806200032c57607f821691505b602082108114156200034e57634e487b7160e01b600052602260045260246000fd5b50919050565b60805160601c60a05160601c60c05160601c60e051610100516101205160601c6101405161016051610180516101a05161491a62000445600039600061239601526000612af201526000612b4101526000612b1c01526000612a7501526000612a9f01526000612ac901526000818161030601526109f701526000818161020c01528181610463015281816113650152818161143001528181612157015281816121e201528181612681015281816126c7015261275c0152600081816105de0152818161082601528181610c3101528181610fe6015281816114d601528181611cde0152611fe0015261491a6000f3fe6080604052600436106101fc5760003560e01c80637bfe950c1161010d578063c2e3140a116100a0578063e985e9c51161006f578063e985e9c514610633578063ea598cb01461067c578063f242432a1461068f578063f3995c67146106af578063f51cc7dd146106c257600080fd5b8063c2e3140a146105b9578063c45a0155146105cc578063c536e60514610600578063df2ab5bb1461062057600080fd5b8063a4a78f0c116100dc578063a4a78f0c14610573578063ac9650d814610586578063b1d9f8f5146105a6578063c171d27e1461037d57600080fd5b80637bfe950c146105065780637ecebe0014610526578063923b8a2a1461037d578063a22cb4651461055357600080fd5b80632eb2c2d6116101905780634aa4a4fc1161015f5780634aa4a4fc146104515780634e1273f4146104855780636d8a3646146104b25780637647691d146104c55780637709fabe146104d857600080fd5b80632eb2c2d61461039d57806333c456e3146103bd5780633644e515146104295780634659a4941461043e57600080fd5b8063106d0231116101cc578063106d0231146102f457806311d128681461034057806312210e8a14610375578063151a8bf81461037d57600080fd5b8062fdd58e1461025157806301ffc9a71461028457806302b9446c146102b45780630e89341c146102c757600080fd5b3661024c57336001600160a01b037f0000000000000000000000000000000000000000000000000000000000000000161461024a5760405163395cfd4760e21b815260040160405180910390fd5b005b600080fd5b34801561025d57600080fd5b5061027161026c366004613e5b565b6106e2565b6040519081526020015b60405180910390f35b34801561029057600080fd5b506102a461029f3660046140d3565b61077b565b604051901515815260200161027b565b61024a6102c2366004613a9a565b6107cd565b3480156102d357600080fd5b506102e76102e236600461421a565b6109be565b60405161027b91906145b2565b34801561030057600080fd5b506103287f000000000000000000000000000000000000000000000000000000000000000081565b6040516001600160a01b03909116815260200161027b565b34801561034c57600080fd5b5061036061035b366004613e17565b610a75565b6040805192835260208301919091520161027b565b61024a610c08565b34801561038957600080fd5b5061024a610398366004614295565b610c1a565b3480156103a957600080fd5b5061024a6103b8366004613af5565b610cc6565b3480156103c957600080fd5b506104096103d8366004613a61565b60066020908152600092835260408084209091529082529020546001600160801b0380821691600160801b90041682565b604080516001600160801b0393841681529290911660208301520161027b565b34801561043557600080fd5b50610271610d68565b61024a61044c366004613ec9565b610d77565b34801561045d57600080fd5b506103287f000000000000000000000000000000000000000000000000000000000000000081565b34801561049157600080fd5b506104a56104a0366004613f23565b610e0c565b60405161027b9190614535565b61024a6104c0366004614201565b610f36565b61024a6104d336600461424c565b61134d565b6104eb6104e6366004613c1a565b6114a3565b6040805193845260208401929092529082015260600161027b565b34801561051257600080fd5b5061024a610521366004613cb5565b611785565b34801561053257600080fd5b50610271610541366004613a20565b60046020526000908152604090205481565b34801561055f57600080fd5b5061024a61056e366004613d64565b6119ec565b61024a610581366004613ec9565b611ac3565b610599610594366004613ff6565b611b58565b60405161027b91906144d3565b6102716105b4366004613d92565b611cb0565b61024a6105c7366004613ec9565b611f36565b3480156105d857600080fd5b506103287f000000000000000000000000000000000000000000000000000000000000000081565b34801561060c57600080fd5b5061024a61061b366004614295565b611fc9565b61024a61062e366004613e87565b61206d565b34801561063f57600080fd5b506102a461064e366004613a61565b6001600160a01b03918216600090815260026020908152604080832093909416825291909152205460ff1690565b61024a61068a36600461421a565b61212b565b34801561069b57600080fd5b5061024a6106aa366004613cfb565b61226e565b61024a6106bd366004613ec9565b6122f5565b3480156106ce57600080fd5b5061024a6106dd366004613ba3565b61234c565b60006001600160a01b0383166107535760405162461bcd60e51b815260206004820152602b60248201527f455243313135353a2062616c616e636520717565727920666f7220746865207a60448201526a65726f206164647265737360a81b60648201526084015b60405180910390fd5b5060009081526001602090815260408083206001600160a01b03949094168352929052205490565b60006001600160e01b03198216636cdb3d1360e11b14806107ac57506001600160e01b031982166303a24d0760e21b145b806107c757506301ffc9a760e01b6001600160e01b03198316145b92915050565b6000546001146107f057604051635cd4e48360e01b815260040160405180910390fd5b600260005581158015610801575080155b1561081f576040516354e3f1e960e11b815260040160405180910390fd5b600061084c7f0000000000000000000000000000000000000000000000000000000000000000868661245e565b90506001600160a01b0381163b61087657604051630408af8b60e31b815260040160405180910390fd5b6040805160608082018352338083526001600160a01b0389811660208086019182528a8316958701958652865190810193909352518116828601529251831681830152835180820390920182526080810193849052634f247fad60e11b90935290831691639e48ff5a916108f391309188918891906084016144a5565b600060405180830381600087803b15801561090d57600080fd5b505af1158015610921573d6000803e3d6000fd5b5050506001600160a01b0380881660009081526006602090815260408083209386168352929052206109559150848461253c565b604080516001600160a01b0387811682528681166020830152918101859052606081018490528183169188169033907f53591a88ac47bfe3130a7de575c6a6a8c22f7604cbba61b8390fbff773ed40499060800160405180910390a45050600160005550505050565b60008181526005602052604090819020549051633e1407fb60e21b81526001600160a01b039182166004820152602481018390526060917f0000000000000000000000000000000000000000000000000000000000000000169063f8501fec9060440160006040518083038186803b158015610a3957600080fd5b505afa158015610a4d573d6000803e3d6000fd5b505050506040513d6000823e601f3d908101601f191682016040526107c7919081019061410d565b600080600054600114610a9b57604051635cd4e48360e01b815260040160405180910390fd5b600260005584610abe5760405163e5664db760e01b815260040160405180910390fd5b604051634fc67d6f60e11b815260048101879052602481018690526001600160a01b03881690639f8cfade906044016040805180830381600087803b158015610b0657600080fd5b505af1158015610b1a573d6000803e3d6000fd5b505050506040513d601f19601f82011682018060405250810190610b3e9190614271565b909250905083821080610b5057508281105b15610b6e576040516317f5d8a760e01b815260040160405180910390fd5b610b793387876125e5565b3360009081526006602090815260408083206001600160a01b038b1684529091529020610ba790838361253c565b604080518681526020810184905290810182905286906001600160a01b0389169033907ff33725bb6a7845b32545fbba800c27396f5b228a52b6e3e1f1aeedc7e5c2ff379060600160405180910390a4600160005590969095509350505050565b4715610c1857610c1833476125f0565b565b6000610c288284018461418f565b90506000610c5f7f00000000000000000000000000000000000000000000000000000000000000008360200151846040015161245e565b9050336001600160a01b03821614610c8a57604051633f55017760e21b815260040160405180910390fd5b8515610ca457610ca482602001518360000151338961267f565b8415610cbe57610cbe82604001518360000151338861267f565b505050505050565b6001600160a01b038516331480610ce25750610ce2853361064e565b610d545760405162461bcd60e51b815260206004820152603260248201527f455243313135353a207472616e736665722063616c6c6572206973206e6f742060448201527f6f776e6572206e6f7220617070726f7665640000000000000000000000000000606482015260840161074a565b610d61858585858561280f565b5050505050565b6000610d72612a68565b905090565b6040516323f2ebc360e21b815233600482015230602482015260448101869052606481018590526001608482015260ff841660a482015260c4810183905260e481018290526001600160a01b03871690638fcbaf0c90610104015b600060405180830381600087803b158015610dec57600080fd5b505af1158015610e00573d6000803e3d6000fd5b50505050505050505050565b60608151835114610e715760405162461bcd60e51b815260206004820152602960248201527f455243313135353a206163636f756e747320616e6420696473206c656e677468604482015268040dad2e6dac2e8c6d60bb1b606482015260840161074a565b6000835167ffffffffffffffff811115610e8d57610e8d6147f0565b604051908082528060200260200182016040528015610eb6578160200160208202803683370190505b50905060005b8451811015610f2e57610f01858281518110610eda57610eda6147da565b6020026020010151858381518110610ef457610ef46147da565b60200260200101516106e2565b828281518110610f1357610f136147da565b6020908102919091010152610f2781614793565b9050610ebc565b509392505050565b600054600114610f5957604051635cd4e48360e01b815260040160405180910390fd5b600260005561012081013542811015610f855760405163b405b4c960e01b815260040160405180910390fd5b60006040518060600160405280336001600160a01b03168152602001846020016020810190610fb49190613a20565b6001600160a01b03168152602001610fd26060860160408701613a20565b6001600160a01b031690529050600061102a7f00000000000000000000000000000000000000000000000000000000000000006110156040870160208801613a20565b6110256060880160408901613a20565b61245e565b90506001600160a01b0381163b61105457604051630408af8b60e31b815260040160405180910390fd5b6001600160a01b03811663ca28fcd66110756101208701610100880161406b565b61108b576110866020870187613a20565b61108d565b305b60608701356110a260a0890160808a0161406b565b60a089013560c08a01356110bd6101008c0160e08d0161406b565b6110cf6101208d016101008e0161406b565b604080518c516001600160a01b039081166020808401919091528e0151811682840152918d015190911660608201526080016040516020818303038152906040526040518963ffffffff1660e01b8152600401611133989796959493929190614449565b600060405180830381600087803b15801561114d57600080fd5b505af1158015611161573d6000803e3d6000fd5b5061117792505050610100850160e0860161406b565b156111eb576111eb61118f60a086016080870161406b565b61119a5760006111a0565b8460a001355b6111b060a087016080880161406b565b6111be578560a001356111c1565b60005b3360009081526006602090815260408083206001600160a01b038816845290915290209190612b92565b6111fd6101208501610100860161406b565b156112885761128861121560a086016080870161406b565b611223578460c00135611226565b60005b61123660a087016080880161406b565b611241576000611247565b8560c001355b6006600061125860208a018a613a20565b6001600160a01b03908116825260208083019390935260409182016000908120918816815292529020919061253c565b60608401356001600160a01b038216337f45e6b781bd057c809483af8c0f74bf1d164816674295f01beb2a50239a594a406112c66020890189613a20565b6112d660a08a0160808b0161406b565b60a08a013560c08b01356112f16101008d0160e08e0161406b565b6113036101208e016101008f0161406b565b604080516001600160a01b039097168752941515602087015293850192909252606084015215156080830152151560a082015260c0015b60405180910390a4505060016000555050565b6040516370a0823160e01b81523060048201526000907f00000000000000000000000000000000000000000000000000000000000000006001600160a01b0316906370a082319060240160206040518083038186803b1580156113af57600080fd5b505afa1580156113c3573d6000803e3d6000fd5b505050506040513d601f19601f820116820180604052508101906113e79190614233565b90508281101561141457604051635c01c81560e11b8152600481018290526024810184905260440161074a565b801561149e57604051632e1a7d4d60e01b8152600481018290527f00000000000000000000000000000000000000000000000000000000000000006001600160a01b031690632e1a7d4d90602401600060405180830381600087803b15801561147c57600080fd5b505af1158015611490573d6000803e3d6000fd5b5050505061149e82826125f0565b505050565b600080600080546001146114ca57604051635cd4e48360e01b815260040160405180910390fd5b600260009081556114fc7f00000000000000000000000000000000000000000000000000000000000000008d8d61245e565b90506001600160a01b0381163b61152657604051630408af8b60e31b815260040160405180910390fd5b846115445760405163e5664db760e01b815260040160405180910390fd5b60006040518060600160405280336001600160a01b031681526020018e6001600160a01b031681526020018d6001600160a01b03168152509050816001600160a01b031663be00763a8c8c8c8c8c8c886040516020016115ce919081516001600160a01b039081168252602080840151821690830152604092830151169181019190915260600190565b6040516020818303038152906040526040518863ffffffff1660e01b81526004016115ff97969594939291906145c5565b606060405180830381600087803b15801561161957600080fd5b505af115801561162d573d6000803e3d6000fd5b505050506040513d601f19601f8201168201806040525081019061165191906140a5565b8095508196508297505050506000826001600160a01b03166321b77d636040518163ffffffff1660e01b815260040160206040518083038186803b15801561169857600080fd5b505afa1580156116ac573d6000803e3d6000fd5b505050506040513d601f19601f820116820180604052508101906116d09190614233565b90506116e73384886116e2858c614723565b612c12565b85836001600160a01b0316336001600160a01b03167f87971656c1d01a8e86f2bf68b1cb8c5e5e03a51f15e8198b243e8365d758bf5d8f8f8f8f888f61172d9190614723565b604080516001600160801b0396909616865263ffffffff948516602087015292841685840152921660608401526080830191909152519081900360a00190a45050506001600081905550985098509895505050505050565b6000546001146117a857604051635cd4e48360e01b815260040160405180910390fd5b6002600055811580156117b9575080155b156117d7576040516354e3f1e960e11b815260040160405180910390fd5b3360009081526006602090815260408083206001600160a01b03871684529091529020611805908383612b92565b6001600160a01b038084169063b5c5f672908616156118245785611826565b305b6040516001600160e01b031960e084901b1681526001600160a01b0390911660048201526024810185905260448101849052606401600060405180830381600087803b15801561187557600080fd5b505af1158015611889573d6000803e3d6000fd5b5050506001600160a01b0384811691508516156118a657846118a8565b335b6001600160a01b0316336001600160a01b03167fba22996accccc21d85180103b1bc5358bcff060b5751cd0033a9a1b028b5af86866001600160a01b031663c08165d46040518163ffffffff1660e01b815260040160206040518083038186803b15801561191557600080fd5b505afa158015611929573d6000803e3d6000fd5b505050506040513d601f19601f8201168201806040525081019061194d9190613a44565b876001600160a01b03166322be3de16040518163ffffffff1660e01b815260040160206040518083038186803b15801561198657600080fd5b505afa15801561199a573d6000803e3d6000fd5b505050506040513d601f19601f820116820180604052508101906119be9190613a44565b604080516001600160a01b03938416815292909116602083015281018790526060810186905260800161133a565b336001600160a01b0383161415611a575760405162461bcd60e51b815260206004820152602960248201527f455243313135353a2073657474696e6720617070726f76616c20737461747573604482015268103337b91039b2b63360b91b606482015260840161074a565b3360008181526002602090815260408083206001600160a01b03871680855290835292819020805460ff191686151590811790915590519081529192917f17307eab39ab6107e8899845ad3d59bd9653f200f220920489ca2b5937696c31910160405180910390a35050565b604051636eb1769f60e11b8152336004820152306024820152600019906001600160a01b0388169063dd62ed3e9060440160206040518083038186803b158015611b0c57600080fd5b505afa158015611b20573d6000803e3d6000fd5b505050506040513d601f19601f82011682018060405250810190611b449190614233565b1015610cbe57610cbe868686868686610d77565b60608167ffffffffffffffff811115611b7357611b736147f0565b604051908082528060200260200182016040528015611ba657816020015b6060815260200190600190039081611b915790505b50905060005b82811015611ca95760008030868685818110611bca57611bca6147da565b9050602002810190611bdc919061461e565b604051611bea92919061437c565b600060405180830381855af49150503d8060008114611c25576040519150601f19603f3d011682016040523d82523d6000602084013e611c2a565b606091505b509150915081611c7657604481511015611c4357600080fd5b60048101905080806020019051810190611c5d919061410d565b60405162461bcd60e51b815260040161074a91906145b2565b80848481518110611c8957611c896147da565b602002602001018190525050508080611ca190614793565b915050611bac565b5092915050565b60008054600114611cd457604051635cd4e48360e01b815260040160405180910390fd5b6002600055611d047f0000000000000000000000000000000000000000000000000000000000000000888861245e565b600780546001600160a01b0319166001600160a01b039290921691821790553b611d4157604051630408af8b60e31b815260040160405180910390fd5b84158015611d4d575083155b15611d6b5760405163e5664db760e01b815260040160405180910390fd5b6007546040805160608082018352338083526001600160a01b038c811660208086019182528d831695870195865286519081019390935251811682860152925183168183015283518082039092018252608081019384905263d2957b8f60e01b90935292169163d2957b8f91611ded918c9130918b918b918b91608401614576565b602060405180830381600087803b158015611e0757600080fd5b505af1158015611e1b573d6000803e3d6000fd5b505050506040513d601f19601f82011682018060405250810190611e3f9190614233565b905081811015611e615760405162c9028760e01b815260040160405180910390fd5b8215611e97573360009081526006602090815260408083206007546001600160a01b031684529091529020611e97908686612b92565b600754611eb0908a906001600160a01b03168a84612c12565b600754604080513381526020810184905290810187905260608101869052841515608082015289916001600160a01b0390811691908c16907f23fa1381c309f3136b257b35dba382f23c6f3d2122b1c1babad95740626721489060a00160405180910390a4600780546001600160a01b0319169055600160005598975050505050505050565b604051636eb1769f60e11b815233600482015230602482015285906001600160a01b0388169063dd62ed3e9060440160206040518083038186803b158015611f7d57600080fd5b505afa158015611f91573d6000803e3d6000fd5b505050506040513d601f19601f82011682018060405250810190611fb59190614233565b1015610cbe57610cbe8686868686866122f5565b6000611fd78284018461418f565b9050600061200e7f00000000000000000000000000000000000000000000000000000000000000008360200151846040015161245e565b9050336001600160a01b0382161461203957604051633f55017760e21b815260040160405180910390fd5b84156120535761205382604001518360000151338861267f565b8515610cbe57610cbe82602001518360000151338961267f565b6040516370a0823160e01b81523060048201526000906001600160a01b038516906370a082319060240160206040518083038186803b1580156120af57600080fd5b505afa1580156120c3573d6000803e3d6000fd5b505050506040513d601f19601f820116820180604052508101906120e79190614233565b90508281101561211457604051635c01c81560e11b8152600481018290526024810184905260440161074a565b801561212557612125848383612c7b565b50505050565b8047101561215557604051635c01c81560e11b81524760048201526024810182905260440161074a565b7f00000000000000000000000000000000000000000000000000000000000000006001600160a01b031663d0e30db0826040518263ffffffff1660e01b81526004016000604051808303818588803b1580156121b057600080fd5b505af11580156121c4573d6000803e3d6000fd5b505060405163a9059cbb60e01b8152336004820152602481018590527f00000000000000000000000000000000000000000000000000000000000000006001600160a01b0316935063a9059cbb92506044019050602060405180830381600087803b15801561223257600080fd5b505af1158015612246573d6000803e3d6000fd5b505050506040513d601f19601f8201168201806040525081019061226a9190614088565b5050565b6001600160a01b03851633148061228a575061228a853361064e565b6122e85760405162461bcd60e51b815260206004820152602960248201527f455243313135353a2063616c6c6572206973206e6f74206f776e6572206e6f7260448201526808185c1c1c9bdd995960ba1b606482015260840161074a565b610d618585858585612d60565b60405163d505accf60e01b8152336004820152306024820152604481018690526064810185905260ff8416608482015260a4810183905260c481018290526001600160a01b0387169063d505accf9060e401610dd2565b8342111561236d576040516331c64a7360e01b815260040160405180910390fd5b6001600160a01b03878116600081815260046020908152604080832080546001810190915581517f00000000000000000000000000000000000000000000000000000000000000008185015280830195909552948b166060850152891515608085015260a084019490945260c08084018990528451808503909101815260e0909301909352815191909201209061240382612f02565b9050600061241382878787612f50565b9050896001600160a01b0316816001600160a01b03161461244757604051630811945d60e41b815260040160405180910390fd5b505050612455878787612f78565b50505050505050565b60008383836040516020016124899291906001600160a01b0392831681529116602082015260400190565b60408051601f1981840301815290829052805160209182012061251c939290917ff8e63833fcbf190bd32bc64a1c450bd59b356b4b7cf79cad298a369fb369aaae91017fff00000000000000000000000000000000000000000000000000000000000000815260609390931b6bffffffffffffffffffffffff191660018401526015830191909152603582015260550190565b60408051601f198184030181529190528051602090910120949350505050565b811561258b5761254b82612fe5565b835484906000906125669084906001600160801b03166146b8565b92506101000a8154816001600160801b0302191690836001600160801b031602179055505b801561149e5761259a81612fe5565b835484906010906125bc908490600160801b90046001600160801b03166146b8565b92506101000a8154816001600160801b0302191690836001600160801b03160217905550505050565b61149e838383612fff565b604080516000808252602082019092526001600160a01b03841690839060405161261a919061438c565b60006040518083038185875af1925050503d8060008114612657576040519150601f19603f3d011682016040523d82523d6000602084013e61265c565b606091505b50909150508061149e576040516313ff771f60e21b815260040160405180910390fd5b7f00000000000000000000000000000000000000000000000000000000000000006001600160a01b0316846001600160a01b03161480156126c05750804710155b156127e2577f00000000000000000000000000000000000000000000000000000000000000006001600160a01b031663d0e30db0826040518263ffffffff1660e01b81526004016000604051808303818588803b15801561272057600080fd5b505af1158015612734573d6000803e3d6000fd5b505060405163a9059cbb60e01b81526001600160a01b038681166004830152602482018690527f000000000000000000000000000000000000000000000000000000000000000016935063a9059cbb92506044019050602060405180830381600087803b1580156127a457600080fd5b505af11580156127b8573d6000803e3d6000fd5b505050506040513d601f19601f820116820180604052508101906127dc9190614088565b50612125565b6001600160a01b038316301415612803576127fe848383612c7b565b612125565b6121258484848461317d565b81518351146128715760405162461bcd60e51b815260206004820152602860248201527f455243313135353a2069647320616e6420616d6f756e7473206c656e677468206044820152670dad2e6dac2e8c6d60c31b606482015260840161074a565b6001600160a01b0384166128d55760405162461bcd60e51b815260206004820152602560248201527f455243313135353a207472616e7366657220746f20746865207a65726f206164604482015264647265737360d81b606482015260840161074a565b3360005b8451811015612a025760008582815181106128f6576128f66147da565b602002602001015190506000858381518110612914576129146147da565b60209081029190910181015160008481526001835260408082206001600160a01b038e1683529093529190912054909150818110156129a85760405162461bcd60e51b815260206004820152602a60248201527f455243313135353a20696e73756666696369656e742062616c616e636520666f60448201526939103a3930b739b332b960b11b606482015260840161074a565b60008381526001602090815260408083206001600160a01b038e8116855292528083208585039055908b168252812080548492906129e79084906146e3565b92505081905550505050806129fb90614793565b90506128d9565b50846001600160a01b0316866001600160a01b0316826001600160a01b03167f4a39dc06d4c0dbc64b70af90fd698a233a518aa5d07e595d983b8c0526c8f7fb8787604051612a52929190614548565b60405180910390a4610cbe81878787878761326a565b6000306001600160a01b037f000000000000000000000000000000000000000000000000000000000000000016148015612ac157507f000000000000000000000000000000000000000000000000000000000000000046145b15612aeb57507f000000000000000000000000000000000000000000000000000000000000000090565b50604080517f00000000000000000000000000000000000000000000000000000000000000006020808301919091527f0000000000000000000000000000000000000000000000000000000000000000828401527f000000000000000000000000000000000000000000000000000000000000000060608301524660808301523060a0808401919091528351808403909101815260c0909201909252805191012090565b90565b8115612be157612ba182612fe5565b83548490600090612bbc9084906001600160801b03166146fb565b92506101000a8154816001600160801b0302191690836001600160801b031602179055505b801561149e57612bf081612fe5565b835484906010906125bc908490600160801b90046001600160801b03166146fb565b612c30848360001c836040518060200160405280600081525061341f565b6000828152600560205260409020546001600160a01b031661212557600082815260056020526040902080546001600160a01b0385166001600160a01b031990911617905550505050565b604080516001600160a01b038481166024830152604480830185905283518084039091018152606490920183526020820180516001600160e01b031663a9059cbb60e01b1790529151600092839290871691612cd7919061438c565b6000604051808303816000865af19150503d8060008114612d14576040519150601f19603f3d011682016040523d82523d6000602084013e612d19565b606091505b5091509150818015612d43575080511580612d43575080806020019051810190612d439190614088565b610d61576040516313ff771f60e21b815260040160405180910390fd5b6001600160a01b038416612dc45760405162461bcd60e51b815260206004820152602560248201527f455243313135353a207472616e7366657220746f20746865207a65726f206164604482015264647265737360d81b606482015260840161074a565b33612ddd818787612dd488613522565b610d6188613522565b60008481526001602090815260408083206001600160a01b038a16845290915290205483811015612e635760405162461bcd60e51b815260206004820152602a60248201527f455243313135353a20696e73756666696369656e742062616c616e636520666f60448201526939103a3930b739b332b960b11b606482015260840161074a565b60008581526001602090815260408083206001600160a01b038b8116855292528083208785039055908816825281208054869290612ea29084906146e3565b909155505060408051868152602081018690526001600160a01b03808916928a821692918616917fc3d58168c5ae7397731d063d5bbf3d657854427343f4c083240f7aacaa2d0f62910160405180910390a461245582888888888861356d565b60006107c7612f0f612a68565b8360405161190160f01b6020820152602281018390526042810182905260009060620160405160208183030381529060405280519060200120905092915050565b6000806000612f6187878787613678565b91509150612f6e81613765565b5095945050505050565b6001600160a01b03838116600081815260026020908152604080832094871680845294825291829020805460ff191686151590811790915591519182527f17307eab39ab6107e8899845ad3d59bd9653f200f220920489ca2b5937696c31910160405180910390a3505050565b60006001600160801b03821115612ffb57600080fd5b5090565b6001600160a01b0383166130615760405162461bcd60e51b815260206004820152602360248201527f455243313135353a206275726e2066726f6d20746865207a65726f206164647260448201526265737360e81b606482015260840161074a565b336130918185600061307287613522565b61307b87613522565b5050604080516020810190915260009052505050565b60008381526001602090815260408083206001600160a01b0388168452909152902054828110156131105760405162461bcd60e51b8152602060048201526024808201527f455243313135353a206275726e20616d6f756e7420657863656564732062616c604482015263616e636560e01b606482015260840161074a565b60008481526001602090815260408083206001600160a01b03898116808652918452828520888703905582518981529384018890529092908616917fc3d58168c5ae7397731d063d5bbf3d657854427343f4c083240f7aacaa2d0f62910160405180910390a45050505050565b604080516001600160a01b0385811660248301528481166044830152606480830185905283518084039091018152608490920183526020820180516001600160e01b03166323b872dd60e01b17905291516000928392908816916131e1919061438c565b6000604051808303816000865af19150503d806000811461321e576040519150601f19603f3d011682016040523d82523d6000602084013e613223565b606091505b509150915081801561324d57508051158061324d57508080602001905181019061324d9190614088565b610cbe576040516313ff771f60e21b815260040160405180910390fd5b6001600160a01b0384163b15610cbe5760405163bc197c8160e01b81526001600160a01b0385169063bc197c81906132ae90899089908890889088906004016143a8565b602060405180830381600087803b1580156132c857600080fd5b505af19250505080156132f8575060408051601f3d908101601f191682019092526132f5918101906140f0565b60015b6133ae57613304614806565b806308c379a0141561333e5750613319614821565b806133245750613340565b8060405162461bcd60e51b815260040161074a91906145b2565b505b60405162461bcd60e51b815260206004820152603460248201527f455243313135353a207472616e7366657220746f206e6f6e204552433131353560448201527f526563656976657220696d706c656d656e746572000000000000000000000000606482015260840161074a565b6001600160e01b0319811663bc197c8160e01b146124555760405162461bcd60e51b815260206004820152602860248201527f455243313135353a204552433131353552656365697665722072656a656374656044820152676420746f6b656e7360c01b606482015260840161074a565b6001600160a01b03841661347f5760405162461bcd60e51b815260206004820152602160248201527f455243313135353a206d696e7420746f20746865207a65726f206164647265736044820152607360f81b606482015260840161074a565b3361349081600087612dd488613522565b60008481526001602090815260408083206001600160a01b0389168452909152812080548592906134c29084906146e3565b909155505060408051858152602081018590526001600160a01b0380881692600092918516917fc3d58168c5ae7397731d063d5bbf3d657854427343f4c083240f7aacaa2d0f62910160405180910390a4610d618160008787878761356d565b6040805160018082528183019092526060916000919060208083019080368337019050509050828160008151811061355c5761355c6147da565b602090810291909101015292915050565b6001600160a01b0384163b15610cbe5760405163f23a6e6160e01b81526001600160a01b0385169063f23a6e61906135b19089908990889088908890600401614406565b602060405180830381600087803b1580156135cb57600080fd5b505af19250505080156135fb575060408051601f3d908101601f191682019092526135f8918101906140f0565b60015b61360757613304614806565b6001600160e01b0319811663f23a6e6160e01b146124555760405162461bcd60e51b815260206004820152602860248201527f455243313135353a204552433131353552656365697665722072656a656374656044820152676420746f6b656e7360c01b606482015260840161074a565b6000807f7fffffffffffffffffffffffffffffff5d576e7357a4501ddfe92f46681b20a08311156136af575060009050600361375c565b8460ff16601b141580156136c757508460ff16601c14155b156136d8575060009050600461375c565b6040805160008082526020820180845289905260ff881692820192909252606081018690526080810185905260019060a0016020604051602081039080840390855afa15801561372c573d6000803e3d6000fd5b5050604051601f1901519150506001600160a01b0381166137555760006001925092505061375c565b9150600090505b94509492505050565b6000816004811115613779576137796147c4565b14156137825750565b6001816004811115613796576137966147c4565b14156137e45760405162461bcd60e51b815260206004820152601860248201527f45434453413a20696e76616c6964207369676e61747572650000000000000000604482015260640161074a565b60028160048111156137f8576137f86147c4565b14156138465760405162461bcd60e51b815260206004820152601f60248201527f45434453413a20696e76616c6964207369676e6174757265206c656e67746800604482015260640161074a565b600381600481111561385a5761385a6147c4565b14156138b35760405162461bcd60e51b815260206004820152602260248201527f45434453413a20696e76616c6964207369676e6174757265202773272076616c604482015261756560f01b606482015260840161074a565b60048160048111156138c7576138c76147c4565b14156139205760405162461bcd60e51b815260206004820152602260248201527f45434453413a20696e76616c6964207369676e6174757265202776272076616c604482015261756560f01b606482015260840161074a565b50565b600082601f83011261393457600080fd5b813560206139418261466c565b60405161394e8282614766565b8381528281019150858301600585901b8701840188101561396e57600080fd5b60005b8581101561398d57813584529284019290840190600101613971565b5090979650505050505050565b600082601f8301126139ab57600080fd5b81356139b681614690565b6040516139c38282614766565b8281528560208487010111156139d857600080fd5b82602086016020830137600092810160200192909252509392505050565b803563ffffffff81168114613a0a57600080fd5b919050565b803560ff81168114613a0a57600080fd5b600060208284031215613a3257600080fd5b8135613a3d816148ab565b9392505050565b600060208284031215613a5657600080fd5b8151613a3d816148ab565b60008060408385031215613a7457600080fd5b8235613a7f816148ab565b91506020830135613a8f816148ab565b809150509250929050565b600080600080600060a08688031215613ab257600080fd5b8535613abd816148ab565b94506020860135613acd816148ab565b93506040860135613add816148ab565b94979396509394606081013594506080013592915050565b600080600080600060a08688031215613b0d57600080fd5b8535613b18816148ab565b94506020860135613b28816148ab565b9350604086013567ffffffffffffffff80821115613b4557600080fd5b613b5189838a01613923565b94506060880135915080821115613b6757600080fd5b613b7389838a01613923565b93506080880135915080821115613b8957600080fd5b50613b968882890161399a565b9150509295509295909350565b600080600080600080600060e0888a031215613bbe57600080fd5b8735613bc9816148ab565b96506020880135613bd9816148ab565b95506040880135613be9816148c0565b945060608801359350613bfe60808901613a0f565b925060a0880135915060c0880135905092959891949750929550565b600080600080600080600080610100898b031215613c3757600080fd5b8835613c42816148ab565b97506020890135613c52816148ab565b965060408901356001600160801b0381168114613c6e57600080fd5b9550613c7c60608a016139f6565b9450613c8a60808a016139f6565b9350613c9860a08a016139f6565b925060c0890135915060e089013590509295985092959890939650565b60008060008060808587031215613ccb57600080fd5b8435613cd6816148ab565b93506020850135613ce6816148ab565b93969395505050506040820135916060013590565b600080600080600060a08688031215613d1357600080fd5b8535613d1e816148ab565b94506020860135613d2e816148ab565b93506040860135925060608601359150608086013567ffffffffffffffff811115613d5857600080fd5b613b968882890161399a565b60008060408385031215613d7757600080fd5b8235613d82816148ab565b91506020830135613a8f816148c0565b600080600080600080600080610100898b031215613daf57600080fd5b8835613dba816148ab565b9750602089013596506040890135613dd1816148ab565b95506060890135613de1816148ab565b94506080890135935060a0890135925060c0890135613dff816148c0565b8092505060e089013590509295985092959890939650565b600080600080600060a08688031215613e2f57600080fd5b8535613e3a816148ab565b97602087013597506040870135966060810135965060800135945092505050565b60008060408385031215613e6e57600080fd5b8235613e79816148ab565b946020939093013593505050565b600080600060608486031215613e9c57600080fd5b8335613ea7816148ab565b9250602084013591506040840135613ebe816148ab565b809150509250925092565b60008060008060008060c08789031215613ee257600080fd5b8635613eed816148ab565b95506020870135945060408701359350613f0960608801613a0f565b92506080870135915060a087013590509295509295509295565b60008060408385031215613f3657600080fd5b823567ffffffffffffffff80821115613f4e57600080fd5b818501915085601f830112613f6257600080fd5b81356020613f6f8261466c565b604051613f7c8282614766565b8381528281019150858301600585901b870184018b1015613f9c57600080fd5b600096505b84871015613fc8578035613fb4816148ab565b835260019690960195918301918301613fa1565b5096505086013592505080821115613fdf57600080fd5b50613fec85828601613923565b9150509250929050565b6000806020838503121561400957600080fd5b823567ffffffffffffffff8082111561402157600080fd5b818501915085601f83011261403557600080fd5b81358181111561404457600080fd5b8660208260051b850101111561405957600080fd5b60209290920196919550909350505050565b60006020828403121561407d57600080fd5b8135613a3d816148c0565b60006020828403121561409a57600080fd5b8151613a3d816148c0565b6000806000606084860312156140ba57600080fd5b8351925060208401519150604084015190509250925092565b6000602082840312156140e557600080fd5b8135613a3d816148ce565b60006020828403121561410257600080fd5b8151613a3d816148ce565b60006020828403121561411f57600080fd5b815167ffffffffffffffff81111561413657600080fd5b8201601f8101841361414757600080fd5b805161415281614690565b60405161415f8282614766565b82815286602084860101111561417457600080fd5b61418583602083016020870161473a565b9695505050505050565b6000606082840312156141a157600080fd5b6040516060810181811067ffffffffffffffff821117156141c4576141c46147f0565b60405282356141d2816148ab565b815260208301356141e2816148ab565b602082015260408301356141f5816148ab565b60408201529392505050565b6000610140828403121561421457600080fd5b50919050565b60006020828403121561422c57600080fd5b5035919050565b60006020828403121561424557600080fd5b5051919050565b6000806040838503121561425f57600080fd5b823591506020830135613a8f816148ab565b6000806040838503121561428457600080fd5b505080516020909101519092909150565b600080600080606085870312156142ab57600080fd5b8435935060208501359250604085013567ffffffffffffffff808211156142d157600080fd5b818701915087601f8301126142e557600080fd5b8135818111156142f457600080fd5b88602082850101111561430657600080fd5b95989497505060200194505050565b600081518084526020808501945080840160005b8381101561434557815187529582019590820190600101614329565b509495945050505050565b6000815180845261436881602086016020860161473a565b601f01601f19169290920160200192915050565b8183823760009101908152919050565b6000825161439e81846020870161473a565b9190910192915050565b60006001600160a01b03808816835280871660208401525060a060408301526143d460a0830186614315565b82810360608401526143e68186614315565b905082810360808401526143fa8185614350565b98975050505050505050565b60006001600160a01b03808816835280871660208401525084604083015283606083015260a0608083015261443e60a0830184614350565b979650505050505050565b60006101006001600160a01b038b168352896020840152881515604084015287606084015286608084015285151560a084015284151560c08401528060e084015261449681840185614350565b9b9a5050505050505050505050565b6001600160a01b03851681528360208201528260408201526080606082015260006141856080830184614350565b6000602080830181845280855180835260408601915060408160051b870101925083870160005b8281101561452857603f19888603018452614516858351614350565b945092850192908501906001016144fa565b5092979650505050505050565b602081526000613a3d6020830184614315565b60408152600061455b6040830185614315565b828103602084015261456d8185614315565b95945050505050565b8681526001600160a01b0386166020820152846040820152836060820152821515608082015260c060a082015260006143fa60c0830184614350565b602081526000613a3d6020830184614350565b6001600160801b0388168152600063ffffffff808916602084015280881660408401528087166060840152508460808301528360a083015260e060c083015261461160e0830184614350565b9998505050505050505050565b6000808335601e1984360301811261463557600080fd5b83018035915067ffffffffffffffff82111561465057600080fd5b60200191503681900382131561466557600080fd5b9250929050565b600067ffffffffffffffff821115614686576146866147f0565b5060051b60200190565b600067ffffffffffffffff8211156146aa576146aa6147f0565b50601f01601f191660200190565b60006001600160801b038083168185168083038211156146da576146da6147ae565b01949350505050565b600082198211156146f6576146f66147ae565b500190565b60006001600160801b038381169083168181101561471b5761471b6147ae565b039392505050565b600082821015614735576147356147ae565b500390565b60005b8381101561475557818101518382015260200161473d565b838111156121255750506000910152565b601f8201601f1916810167ffffffffffffffff8111828210171561478c5761478c6147f0565b6040525050565b60006000198214156147a7576147a76147ae565b5060010190565b634e487b7160e01b600052601160045260246000fd5b634e487b7160e01b600052602160045260246000fd5b634e487b7160e01b600052603260045260246000fd5b634e487b7160e01b600052604160045260246000fd5b600060033d1115612b8f5760046000803e5060005160e01c90565b600060443d101561482f5790565b6040516003193d81016004833e81513d67ffffffffffffffff816024840111818411171561485f57505050505090565b82850191508151818111156148775750505050505090565b843d87010160208285010111156148915750505050505090565b6148a060208286010187614766565b509095945050505050565b6001600160a01b038116811461392057600080fd5b801515811461392057600080fd5b6001600160e01b03198116811461392057600080fdfea26469706673582212205381134b94e45fcf58ba82c33bb83621af38686b4598901c3792385a3bcac60364736f6c63430008060033",
  "linkReferences": {},
  "deployedLinkReferences": {}
}